:100000000C9483000C94B4000C94B4000C94B400D1
:100010000C94B4000C94B4000C94B4000C94B40090
:100020000C94B4000C94B4000C94B4000C94B40080
:100030000C94B4000C94B4000C94B4000C94B40070
:100040000C94B4000C94B4000C94B4000C94B40060
:100050000C94B4000C94B4000C94B4000C940702FB
:100060000C94B4000C947B020C9451020C94B400D8
:100070000C94B4000C94B4000C94B4000C94B40030
:100080000C94B4000C94B4000C94B4000C94B40020
:100090000C94B4000C94B4000C94B4000C94B40010
:1000A0000C94B4000C94B4000C94B4000C94B40000
:1000B0000C94B4000C94B4000C94B4000C94B400F0
:1000C0000C94B4000C94B4000C94B4000C94B400E0
:1000D0000C94B4000C94B4000C94B4000C94B400D0
:1000E0000C94B4000C94B6000C9499010C94E300A9
:1000F0000C944C010C94F2000C9406010C94140125
:100100000C94B102B10211241FBECFEFD1E2DEBFC9
:10011000CDBF00E00CBF12E0A0E0B2E0E2EAF8E000
:1001200000E00BBF02C007900D92A835B107D9F7C8
:1001300023E0A8E5B2E001C01D92AA30B207E1F7C2
:1001400010E0C3E8D0E000E006C021970109802F4D
:10015000FE010E944704C238D10780E00807A9F7D2
:100160000E94E3020C944F040C940000AF92BF92E3
:10017000CF92DF92EF92FF920F931F93CF93DF9373
:100180006C017B018B01040F151FEB015E01AE18A2
:10019000BF08C017D10759F06991D601ED91FC91C4
:1001A0000190F081E02DC6011995892B79F7C501E1
:1001B000DF91CF911F910F91FF90EF90DF90CF9043
:1001C000BF90AF900895FC01538D448D252F30E0F2
:1001D000842F90E0821B930B541710F0CF96089554
:1001E00001970895FC01918D828D981761F0A28D81
:1001F000AE0FBF2FB11D5D968C91928D9F5F9F7347
:10020000928F90E008958FEF9FEF0895FC01918DFC
:10021000828D981731F0828DE80FF11D858D90E069
:1002200008958FEF9FEF0895FC01918D228D892F06
:1002300090E0805C9F4F821B91098F7399270895EE
:1002400082E692E00E94140121E0892B09F420E06B
:10025000822F0895FC01A48DA80FB92FB11DA35AB8
:10026000BF4F2C91848D90E001968F739927848FD6
:10027000A689B7892C93A089B1898C9183708064F9
:100280008C93938D848D981306C00288F389E02D9A
:1002900080818F7D80830895EF92FF920F931F934B
:1002A000CF93DF93EC0181E0888F9B8D8C8D981329
:1002B0001AC0E889F989808185FF15C09FB7F89435
:1002C000EE89FF896083E889F98980818370806481
:1002D00080839FBF81E090E0DF91CF911F910F91CC
:1002E000FF90EF900895F62E0B8D10E00F5F1F4FDB
:1002F0000F731127E02E8C8D8E110CC00FB607FCEA
:10030000FACFE889F989808185FFF5CFCE010E9477
:100310002A01F1CFEB8DEC0FFD2FF11DE35AFF4FBA
:10032000F0829FB7F8940B8FEA89FB898081806205
:10033000CFCFCF93DF93EC01888D8823B9F0AA89C2
:10034000BB89E889F9898C9185FD03C0808186FD90
:100350000DC00FB607FCF7CF8C9185FFF2CF8081DF
:1003600085FFEDCFCE010E942A01E9CFDF91CF9129
:10037000089580E090E0892B29F00E9420018111EE
:100380000E94000080E090E0892B49F080E090E03E
:10039000892B29F00E94000081110E94000080E05A
:1003A00090E0892B49F080E090E0892B29F00E94B1
:1003B000000081110E94000080E090E0892B49F04C
:1003C00080E090E0892B29F00E94000081110C94BC
:1003D00000000895CF93DF93FC0101900020E9F71E
:1003E0003197AF01481B590BBC0182E692E00E9495
:1003F000B600EC0142E050E062E272E082E692E098
:100400000E94B6008C0F9D1FDF91CF9108951F921F
:100410000F920FB60F9211242F933F938F939F93B8
:10042000AF93BF9380915E0290915F02A0916002B2
:10043000B091610230915D0223E0230F2D3758F512
:100440000196A11DB11D20935D0280935E029093E1
:100450005F02A0936002B093610280915902909173
:100460005A02A0915B02B0915C020196A11DB11DE0
:100470008093590290935A02A0935B02B0935C025E
:10048000BF91AF919F918F913F912F910F900FBE90
:100490000F901F90189526E8230F0296A11DB11DFD
:1004A000D2CF1F920F920FB60F9211240BB60F925C
:1004B0002F933F934F935F936F937F938F939F936C
:1004C000AF93BF93EF93FF9382E692E00E942A01DD
:1004D000FF91EF91BF91AF919F918F917F916F911C
:1004E0005F914F913F912F910F900BBE0F900FBED8
:1004F0000F901F9018951F920F920FB60F92112414
:100500000BB60F922F938F939F93EF93FF93E091EE
:100510007202F09173028081E0917802F091790289
:1005200082FD1DC0908180917B028F5F8F7320912F
:100530007C02821741F0E0917B02F0E0EE59FD4F22
:10054000958F80937B02FF91EF919F918F912F91D7
:100550000F900BBE0F900FBE0F901F9018958081CB
:10056000F2CFE2E6F2E01382128288EE93E0A0E09E
:10057000B0E084839583A683B78384E192E091837E
:10058000808385EC90E09587848784EC90E0978762
:10059000868780EC90E0918B808B81EC90E0938B50
:1005A000828B82EC90E0958B848B86EC90E0978B2D
:1005B000868B118E128E138E148EEFEFF2E0118265
:1005C000108212820895789484B5826084BD84B5C7
:1005D000816084BD85B5826085BD85B5816085BD3E
:1005E00080916E00816080936E00109281008091F6
:1005F000810082608093810080918100816080937E
:100600008100809180008160809380008091B100A2
:1006100084608093B1008091B00081608093B000CD
:10062000809191008260809391008091910081601F
:1006300080939100809190008160809390008091E0
:10064000A10082608093A1008091A10081608093CD
:10065000A1008091A00081608093A0008091210181
:10066000826080932101809121018160809321012A
:100670008091200181608093200180917A008460C4
:1006800080937A0080917A00826080937A008091D2
:100690007A00816080937A0080917A0080688093EC
:1006A0007A001092C100E0917202F091730282E030
:1006B0008083E0916E02F0916F021082E0917002EF
:1006C000F091710280E1808310927A02E0917602CB
:1006D000F091770286E08083E0917402F0917502D8
:1006E000808180618083E0917402F0917502808145
:1006F00088608083E0917402F09175028081806847
:100700008083E0917402F091750280818F7D8083F7
:100710001092580284E690E0A0E0B0E080930C02D2
:1007200090930D02A0930E02B0930F0288EC90E01C
:10073000A0E0B0E08093040290930502A09306022B
:10074000B09307028091080290910902A0910A02D9
:10075000B0910B0240910C0250910D0260910E027B
:1007600070910F02840F951FA61FB71F2FB7F89423
:1007700040915E0250915F0260916002709161024F
:100780002FBF481759076A077B0768F12FB7F894FE
:1007900080915E0290915F02A0916002B09161022F
:1007A0002FBF8093080290930902A0930A02B0938E
:1007B0000B0285E292E00E94EA011092000310927F
:1007C000FF02109201031092020310920303109291
:1007D000040310920503109206031092070310926F
:1007E0000803109209038091000290910102A091E8
:1007F0000202B091030240910402509105026091FF
:10080000060270910702840F951FA61FB71F2FB70E
:10081000F89440915E0250915F0260916002709185
:1008200061022FBF481759076A077B0768F12FB786
:10083000F89480915E0290915F02A0916002B09165
:1008400061022FBF8093000290930102A0930202E5
:10085000B09303028EE392E00E94EA01109200033B
:100860001092FF02109201031092020310920303F0
:1008700010920403109205031092060310920703CE
:1008800010920803109209030E94B9015BCFEE0F8A
:10089000FF1F881F8BBF0790F691E02D1994F894E5
:0208A000FFCF88
:1008A200000000006400000000000000640000007E
:1008B200000000004C01B600E30099011401F200AF
:1008C20006010D0A0052656164696E672048502076
:1008D20043414E206D6573736167653A200052652E
:1008E2006164696E67204C502043414E206D6573F0
:0808F200736167653A20000004
:00000001FF
